:100000000C940F020C9440020C9440020C94400299
:100010000C9440020C9440020C9440020C94400258
:100020000C9440020C9440020C9440020C94400248
:100030000C9440020C9493440C9440020C944002A3
:100040000C9440020C9465440C9440020C944002C1
:100050000C94A0460C9440020C9440020C949143E2
:100060000C9440020C94E2450C9440020C94400223
:100070000C9440020C9440020C9440020C944002F8
:100080000C9437440C9440020C9440020C944002AF
:100090000C9440020C9440020C9440020C94BE4418
:1000A0000C9440020C9440020C9409440C944002BD
:1000B0000C9440020C9440020C9440020C94DB43DC
:1000C0000C9440020C9440020C9440020C944002A8
:1000D0000C9440020C9440020C9440020C94400298
:1000E0000C944002084AD73B3BCE016E84BCBFFD56
:1000F000C12F3D6C74319ABD56833DDA3D00C77FF8
:1001000011BED9E4BB4C3E916BAAAABE0000008090
:100110003F000C94DB0B0C94B91D0C94823E0C94A4
:100120004C020C9475370C94090C0C949A3A0C946C
:100130004C150C9473030C94B01C0C940C140C947C
:100140009D100C942D290C94F2100C9447030C94E0
:10015000A11A0C9465100C94D2110C94D2070C9433
:1001600026110C9456360C944D030C94C0100C942C
:100170004C3F0C945F030C94E4170C9492370C944E
:1001800032030C94B60E0C9455130C94A7100C94D7
:10019000FC2C0C94CA100C9409140C94C60E0C94EC
:1001A00020140C9465030C9457030C943D360C9466
:1001B0009E070C94EA130C94D4100C941A140C940B
:1001C00093100C9472030C94DE100C94F30B0C94AB
:1001D000BE0B0C9483100C94BD370C94133A0C9402
:1001E0000B0C0C94432C0C944D020C94890B0C9426
:1001F0000F140C946E370C94930D0C942C140C94D7
:10020000C0360C94AE020C94AF370C948E070C944D
:10021000D00E0C943C030C947F190C9429140C946C
:100220006D030C9403140C9482120C9469030C94C7
:100230009E370C94A5070C9415140C94682C0C9400
:10024000DA0D0C94E8100C94760E0C94693F0C9423
:1002500002100C948A3A0C9454120C940D400C9495
:10026000BD0D0C94711B0C94980B0C94B03D0C9428
:100270001D140C9444030C9460100C94A12C0C9449
:1002800040030C9451030C94363F0C9426140C94A8
:100290008A400C948F070C945B030C947E4D0C9455
:1002A0001D3F0C9412140C9453180C94223F0C9480
:1002B00079100C9477030C946F100C941B3E0C94E3
:1002C000A40E0C948B100C94803A0C943D4B0C941F
:1002D000710F0C94B1100C9423140C94413A0C94AB
:1002E0005A100C9403110C941F3A0C9482130C9422
:1002F00038030C947E0D0C94061400002200250097
:1003000028002B002E0031003400020100000501FE
:1003100008010B0100000A0B02090C0D0E0807036F
:1003200004010000000000000000000000000000C8
:1003300000000000000000000000000000000000BD
:10034000121110000000000000000000000000007A
:100350000000000000000000000000002100240058
:1003600027002A002D0030003300010100000401A5
:1003700007010A01000020002300260029002C00AC
:100380002F003200000100000301060109010505EC
:100390000505070508080808020202020A0A0808FB
:1003A0000404040401010101010101010303030329
:1003B00003030303040707070C0C0C0C0C0C0C0CB8
:1003C0000202020206060606060606060B0B0B0BC9
:1003D0000B0B0B0B010210202008081020401020EE
:1003E00040800201020108040201010204081020F9
:1003F00040808040201008040201800402018040F7
:10040000201008040201080402010102040810205F
:10041000408001020408102040803D4B7E4D112495
:100420001FBECFEFD1E2DEBFCDBF00E00CBF12E0B8
:10043000A0E0B2E0E2E7F4EA00E00BBF02C0079000
:100440000D92A23FB107D9F72BE0A2EFB2E001C0B5
:100450001D92AF3AB207E1F712E0CEE0D2E000E041
:1004600006C021970109802FFE010E94E550CD3082
:10047000D10780E00807A9F70E94614C0C9427522D
:100480000C94000091E090938E088093B008109235
:100490008F081092B1080895089508953F924F92E1
:1004A0005F926F927F928F929F92AF92BF92CF9204
:1004B000DF92EF92FF920F931F93CF93DF937C0114
:1004C000062F6C0184E0C80ED11C11E01017A0F5B6
:1004D000F60181909190A190B1906F01312EC32DC2
:1004E000D0E0C150D04CCC0FDD1FCC0FDD1FF70189
:1004F000EC0FFD1F40805180628073802496CE0DEA
:10050000DF1DA3019201C501B4010E947F4E87FF48
:1005100007C0488259826A827B823A943110DFCFC9
:1005200084E0389EF0011124EE0DFF1D808291823F
:10053000A282B3821F5FCACFDF91CF911F910F912B
:10054000FF90EF90DF90CF90BF90AF909F908F90F3
:100550007F906F905F904F903F90089590914108E9
:10056000809140082FEF3FEF981748F4E92FF0E013
:10057000EE5BF74F208130E09F5F90934108C90107
:10058000089590914108809140082FEF3FEF981710
:1005900048F4E92FF0E0EE5BF74F208130E09F5FF9
:1005A00090934108C901089590915D0A9F77E09169
:1005B0005D0A2E2F221F2227221FE0915E0AEF7371
:1005C000EE0FE22BA5E3B8E08E0F8F77E917E9F085
:1005D00021E02E0FF0E0EE0FFF1FE35AF64F4081AF
:1005E00051814D93E22FEF77E813F0CF80915D0AB0
:1005F000E0FB87F980935D0AE69580915E0A807C36
:10060000E82BE0935E0A81E0089580915D0AE0FBAB
:1006100087F980935D0AE69580915E0A807CE82BDD
:10062000E0935E0A80E008958150823108F05AC05C
:10063000E82FF0E08827E05EFC4F8F4F0C94E550E8
:1006400040034403320338033C03720347034D0362
:10065000510357035B035F036503690372036D0373
:1006600073037703809180008F77809380000895D3
:10067000809180008F7DF9CF80918000877FF5CFBA
:1006800084B58F7784BD089584B58F7DFBCF80912D
:10069000B0008F778093B00008958091B0008F7D77
:1006A000F9CF809190008F7780939000089580918A
:1006B00090008F7DF9CF80919000877FF5CF80915A
:1006C000A0008F778093A00008958091A0008F7D77
:1006D000F9CF8091A000877FF5CF809120018F779F
:1006E000809320010895809120018F7DF9CF809122
:1006F0002001877FF5CFCF93DF93282F30E0F901DA
:10070000EC5EFC4F8491F901EC52FC4FD491F9015D
:10071000E257FC4FC491CC23A1F081110E94140335
:10072000EC2FF0E0EE0FFF1FEC58FC4FA591B491B9
:10073000EC91ED2381E090E009F480E0DF91CF912E
:10074000089580E090E0FACF1F93CF93DF93282F96
:1007500030E0F901EC5EFC4F8491F901EC52FC4F62
:10076000D491F901E257FC4FC491CC23A9F0162F84
:1007700081110E941403EC2FF0E0EE0FFF1FE650F2
:10078000FD4FA591B4918FB7F894EC91111108C069
:10079000D095DE23DC938FBFDF91CF911F91089519
:1007A000DE2BF8CFCF93DF9390E0FC01EC52FC4FAF
:1007B000249182579C4FFC0184918823C9F090E0DA
:1007C000880F991FFC01E65AFC4FA591B491FC01DA
:1007D000E650FD4FC591D49161110DC09FB7F894BB
:1007E0008C91209582238C938881282328839FBF16
:1007F000DF91CF910895623051F49FB7F8943C9106
:10080000822F809583238C93E8812E2BEFCF8FB797
:10081000F894EC912E2B2C938FBFEACF863308F0FF
:10082000865320917B00982F9870277F922B90936E
:100830007B008770806480937C0080917A00806464
:1008400080937A0080917A0086FDFCCF80917800B9
:100850009091790008953FB7F894809101069091A6
:100860000206A0910306B091040626B5A89B05C018
:100870002F3F19F00196A11DB11D3FBFBA2FA92F1F
:10088000982F8827BC01CD01620F711D811D911D1C
:1008900042E0660F771F881F991F4A95D1F7089588
:1008A0008F929F92AF92BF92CF92DF92EF92FF9280
:1008B0006B017C010E942B044B015C01C114D1042B
:1008C000E104F104B9F00E942B04681979098A093E
:1008D0009B09683E73408105910580F321E0C21AAF
:1008E000D108E108F10888EE880E83E0981EA11C6B
:1008F000B11CE4CFFF90EF90DF90CF90BF90AF900E
:100900009F908F9008952FB7F8946091FD05709196
:10091000FE058091FF05909100062FBF0895AF92CC
:10092000BF92CF92DF92EF92FF920F931F93CF93DC
:10093000DF936B017A01EC01C850DA4F28813CE06B
:10094000389F8001399F100D1124A090F705B12C1C
:1009500027FF1FC0FB011182108288818F5F88836F
:1009600088819801280F311D87FD3A95F6012A15D7
:100970003B051CF488818C30C4F180819181049600
:1009800080349C4908F473C0F601808191810496FB
:1009900070C088819801280F311D87FD3A952A156E
:1009A0003B05DCF68881A801480F511D87FD5A954B
:1009B000FA01EE0FFF1FE40FF51FE959FA4F80818E
:1009C00086FFCBCF8881F801E80FF11D87FDFA95EE
:1009D000CF01EE0FFF1FE80FF91FE959FA4F808191
:1009E00060E08F730E94A403B8CF80819181288139
:1009F000A801420F511D27FD5A959A01FA01EE0FE9
:100A0000FF1FE20FF31FE959FA4F21813281820F54
:100A1000931FF7019183808388819801280F311DEE
:100A200087FD3A95F901EE0FFF1FE20FF31FE95919
:100A3000FA4F808186FF22C08881080F111D87FD33
:100A40001A95F801EE0FFF1FE00FF11FE959FA4F59
:100A5000808161E08F73DF91CF911F910F91FF90A3
:100A6000EF90DF90CF90BF90AF900C94A40380E400
:100A70009CE9F701918380838FEF8883DF91CF9189
:100A80001F910F91FF90EF90DF90CF90BF90AF90AC
:100A9000089520914205260F3327331F2132310557
:100AA000ECF420918808FC0190E080E0243069F0AB
:100AB00082E00895A09142052191AC014E5D5A4F0C
:100AC000A40FB52FB11D2C930196861798F3809132
:100AD0004205680F6093420580E0089581E0089523
:100AE0001092880881E0809387081092620861E084
:100AF00084E10E94A40361E085E10E94A403E9EB84
:100B0000F0E080818E7F808380818D7F808388E488
:100B10008093B80085E48093BC000895109241084A
:100B20001092400810928F081092B1080E94700530
:100B30008CE492E090933F0880933E088DE492E02D
:100B400090933D0880933C080895CF93DF9391E004
:100B5000909321058823B9F0C091B800D091BA00D4
:100B60008091BC008A7B8093BC0060E084E10E949D
:100B7000A40360E085E10E94A4030E947005D09365
:100B8000BA00C093B800DF91CF9108958F929F92E1
:100B9000AF92BF92CF92DF92EF92FF920F931F938B
:100BA000CF93DF93D091B108D13208F0D7C0182F7E
:100BB000C091B0080E942B046B017C0180918808D1
:100BC00081116BC082E080938808109387088FEFB3
:100BD0008093860810928508D0938408A0E9B8E035
:100BE000E4E6F8E080E0D81391C0109263088091A9
:100BF0006308CC0FC82BC0936308809162088130D2
:100C000009F088C0109262080E942B046B017C01DD
:100C1000809163088093BB0080918A0890918B0833
:100C2000A0918C08B0918D08892B8A2B8B2BA1F079
:100C30000E942B0400918A0810918B0820918C0847
:100C400030918D086C197D098E099F0906171707C9
:100C50002807390708F442C08091BC0083FDD8CF33
:100C600085EC8093BC000E942B046B017C01809179
:100C70008808823009F450C0809186088F3F09F4BB
:100C80006FC080918608803209F46CC0809186081C
:100C9000803309F469C084E026C080918A0890916D
:100CA0008B08A0918C08B0918D08892B8A2B8B2BF7
:100CB00009F484CF0E942B0480908A0890908B08BE
:100CC000A0908C08B0908D086C197D098E099F0941
:100CD00086169706A806B90608F070CF8091890895
:100CE0000E94A50585E010928F081092B10810921D
:100CF0008E08DF91CF911F910F91FF90EF90DF90C1
:100D0000CF90BF90AF909F908F9008959D919193B9
:100D10008F5F69CF85EEA5CF80918A0890918B086F
:100D2000A0918C08B0918D08892B8A2B8B2B09F40C
:100D30009ECF0E942B0400918A0810918B0820916D
:100D40008C0830918D086C197D098E099F09061752
:100D500017072807390708F08ACFC0CF81E0C3CF33
:100D600080E0C1CF82E0BFCF83E0BDCF8F929F9262
:100D7000AF92BF92CF92DF92EF92FF920F931F93A9
:100D8000CF93DF93D82FC62F142F613208F09CC069
:100D90000E942B046B017C018091880881116FC037
:100DA00081E080938808109387089FEF90938608CE
:100DB000109285089C0F909384088093630880911B
:100DC0006308DD0FD82BD0936308809162088130CF
:100DD00009F07CC0109262080E942B046B017C0118
:100DE000809163088093BB0080918A0890918B0862
:100DF000A0918C08B0918D08892B8A2B8B2BA1F0A8
:100E00000E942B0400918A0810918B0820918C0875
:100E100030918D086C197D098E099F0906171707F7
:100E20002807390708F44CC08091BC0083FDD8CF57
:100E300085EC8093BC000E942B046B017C018091A7
:100E40008808813009F444C0809185088C1710F41B
:100E5000C0918508E4E6F8E0A2E4B8E080E08C13F5
:100E600059C08C2FDF91CF911F910F91FF90EF9080
:100E7000DF90CF90BF90AF909F908F90089580911A
:100E80008A0890918B08A0918C08B0918D08892BCD
:100E90008A2B8B2B09F480CF0E942B0480908A0828
:100EA00090908B08A0908C08B0908D086C197D09EB
:100EB0008E099F0986169706A806B90608F06CCF1A
:100EC000809189080E94A505C0E0CBCF85EEB1CF07
:100ED00080918A0890918B08A0918C08B0918D0820
:100EE000892B8A2B8B2B09F4AACF0E942B0400910B
:100EF0008A0810918B0820918C0830918D086C190C
:100F00007D098E099F09061717072807390708F07A
:100F100096CFD6CF91919D938F5FA1CF0895E09109
:100F2000410880914008E81730F4F0E0EE5BF74F9D
:100F3000808190E008958FEF9FEF089580914008A1
:100F400090914108891B990B0895CF92DF92EF92FF
:100F5000FF920F931F93CF93DF937C01CB018A0104
:100F600020918E08222389F0EB016B01C40ED51E5F
:100F7000CC15DD0569F06991D701ED91FC910190E7
:100F8000F081E02DC7011995F3CF642F0E94490528
:100F9000C801DF91CF911F910F91FF90EF90DF90EB
:100FA000CF900895CF93DF931F92CDB7DEB76983BB
:100FB00020918E082223F9F02091B108203258F0B8
:100FC00021E030E0FC013383228390E080E00F9049
:100FD000DF91CF91089580918F08E82FF0E0E057DE
:100FE000F74F998190838F5F80938F088093B1082A
:100FF00081E090E0ECCF61E0CE0101960E944905CE
:10100000F7CF682F82EB98E00C94D20781E00C9424
:10101000C605FF920F931F93CF93DF93EC01F62E3B
:10102000142F052F8B810E94420289819A81DC0155
:10103000ED91FC910190F081E02D6F2D1995898142
:101040009A81DC01ED91FC910190F081E02D602FFF
:10105000199589819A81DC01ED91FC910190F081D3
:10106000E02D612F199589819A810E940608888355
:10107000DF91CF911F910F91FF9008950F931F93D0
:10108000CF93DF93EC01062F142F8B810E94420235
:1010900089819A81DC01ED91FC910190F081E02D34
:1010A000602F199589819A81DC01ED91FC91019065
:1010B000F081E02D612F199589819A810E9406089F
:1010C0008883DF91CF911F910F9108951F93CF9344
:1010D000DF93EA01122FDC0111968D919C91DC01C6
:1010E000ED91FC910280F381E02D1995C817D90785
:1010F00029F4812F0E94C60591E0811190E0892F8B
:10110000DF91CF911F910895CF93DF93EC018B81F5
:10111000882371F088810E94420289819A810E940D
:10112000060891E0811190E0892FDF91CF91089519
:101130000E948E0581E08B83CE010E948408982F47
:101140008111E8CFF1CF8823E9F0A3E1B6E025E0F3
:1011500014969C91149789130DC095E0899FF00116
:101160001124ED5EF94F848114968C9313821282C0
:1011700014820895992331F0929FD0011124AD5E1D
:10118000B94FE6CF08958823A1F0909112069923D4
:1011900081F08F3F29F480912007909121070895D5
:1011A00095E0899FF0011124ED5EF94F82819381D2
:1011B000089590E080E008958EBD00000DB407FE14
:1011C000FDCF8EB508951F93CF93DF93182FC62FB1
:1011D000D42F60E085E30E94A4038C2F8F71812BB4
:1011E0000E94DC088D2F0E94DC0861E085E3DF911E
:1011F000CF911F910C94A403CF93DF93D82FD07677
:10120000909100029D17A1F0C82F43E06FE180EAA2
:101210000E94E3084C2F50E085E0559547958A954C
:10122000E1F743706FE180E80E94E308D093000289
:10123000DF91CF9108951F93CF93DF93C82F162F7F
:10124000D72F0E94FC08412F6C2F80E40E94E308F6
:1012500061E06C0F4D2F80E4DF91CF911F910C94D2
:10126000E308EF92FF920F931F93CF93DF938B01CD
:101270007A018F3F59F095E0899FE0011124CD5EFE
:10128000D94F68817981600F711F0FC060911E076F
:1012900070911F07600F711FCEE1D7E0611588E0E4
:1012A000780778F37850CEE1D7E080E00E941B0900
:1012B0008A819B81801B910BE816F90608F4C7010F
:1012C000DF91CF911F910F91FF90EF900895EF92D2
:1012D000FF920F931F93CF93DF93EB0170E060E0D9
:1012E0000E9431098C0160E085E30E94A4038AE337
:1012F0000E94DC087E01E00EF11EEC16FD0629F0CE
:1013000080E00E94DC088993F8CF61E085E30E94C9
:10131000A403C801DF91CF911F910F91FF90EF902F
:10132000089560911C0770911D076115710529F0E2
:10133000615071098CE00C941B096FEF77E0FACFD4
:10134000CF93DF93C82FD62F0E94FC084D2F6C2F10
:1013500080E4DF91CF910C94E308CF93DF93D82FF3
:10136000C62F60E085E30E94A4038C2F8F718D2B24
:101370000E94DC08C7FF03C080E00E94DC0880E018
:101380000E94DC08C82F61E085E30E94A4038C2F33
:10139000DF91CF910895CF93C82F0E94FC086C2F46
:1013A00080E0CF910C94AD09CF93DF93EB01682FD0
:1013B00084ED0E94A009BE0186ED0E941B09CFE0CA
:1013C000D0E08AEE0E94CB0980FF08C06AE070E09E
:1013D00080E090E00E945004219799F7DF91CF912F
:1013E0000895CF93C62FBC0182E00E941B0960E0E4
:1013F00085E30E94A4038AE70E94DC088C2F0E94E8
:10140000DC0861E085E3CF910C94A403CF93BC0189
:1014100080E00E941B0960E085E30E94A4038AE348
:101420000E94DC0880E00E94DC08C82F61E085E3B0
:101430000E94A4038C2FCF910895CF92DF92EF9258
:10144000FF920F931F93CF93DF936C018B01413079
:10145000510579F4CB010E94060A682FC601DF917D
:10146000CF911F910F91FF90EF90DF90CF900C9450
:10147000F109EA01C60FD71F7E0181E0E81AF108E1
:1014800080E10E941B09B60184E10E941B0901153D
:10149000184048F4E11488E0F80628F07E0181E065
:1014A000E81A88E0F80AB70182E10E941B0940E1CE
:1014B0006FE180EA0E94E30840E26FE180E80E9469
:1014C000E3086FE180E00E94AD0985FF07C061E09D
:1014D00070E080E090E00E945004F3CFDF91CF9164
:1014E0001F910F91FF90EF90DF90CF900895CF92D2
:1014F000DF92EF92FF920F931F93CF93DF938C01B4
:1015000060911306709114066150784EC12C98E1D9
:10151000D92EE3E1F6E020E0D0E0C0E045E0348100
:10152000CB01332341F0439FC00111248D5E994FBD
:10153000DC018D919C91E080F1808E199F090280E1
:10154000F381E02D8E1B9F0B8017910799F4B5E076
:101550002B9FE0011124CD5ED94FE8E1F6E081E058
:1015600022813381232B09F453C035968F5F853355
:10157000B9F744C00817190748F48C159D0530F4D5
:10158000249FE0011124CD5ED94F6C01311121C09F
:10159000209719F7C3E1D6E085E0D82E8C81288109
:1015A0003981EA80FB808823D9F0E20EF31E8D9DFD
:1015B000E0011124CD5ED94F68817981E616F706E6
:1015C00069F34A815B81C7010E941D0AF982E882A2
:1015D000E5CF349FF0011124ED5EF94F232F9FCF0B
:1015E0008091130690911406821B930B8E199F090C
:1015F0008150984E8017910708F0AFCF80E0DF91BF
:10160000CF911F910F91FF90EF90DF90CF900895B1
:10161000288139814A815B81240F351F31832083E2
:10162000138302839C8194838C83E9CF0F931F9350
:10163000DB01E42FA80190E0EF3FE1F065E0E69FD9
:10164000F0011124ED5EF94F60817181620F731F0B
:1016500001C0785025E0289FF001299FF00D11244A
:10166000ED5EF94F808191818A0F9B1F1F910F9131
:101670000C941D0A60911E0770911F07620F731F63
:101680006115E8E07E0728F7EEE1F7E0DDCFCF92C5
:10169000DF92EF92FF920F931F93CF93DF936B0133
:1016A0008A01790195E0899FE0011124CD5ED94F2F
:1016B000688179816C0D7D1D82E00E941B090A8082
:1016C000DB81C02DCC19DD09EC16FD0608F4E7011D
:1016D00060E085E30E94A4038AE70E94DC087801A9
:1016E000EC0EFD1EE016F10631F0F80181918F013C
:1016F0000E94DC08F7CF61E085E30E94A403CE01DD
:10170000DF91CF911F910F91FF90EF90DF90CF90DD
:101710000895DC011C96ED91FC91309731F08681A3
:101720009781982789279827089590E080E0089569
:10173000CF93DF93FC01EB01AC85BD851097A9F039
:1017400012969C91129713968C9113973C91119637
:101750002C914FEE52E05183408332832383948354
:101760008583CF01DF91CF9108958FEE92E0918331
:1017700080831282138214821582F3CFCF93DF937A
:101780001F92CDB7DEB7DC01ED91FC91048CF58D95
:10179000E02D41E050E0BE016F5F7F4F19951816B4
:1017A000190634F4898190E00F90DF91CF9108956C
:1017B0008FEF9FEFF9CFCF93DF93EC018A898823D6
:1017C00079F09A01AB016E857F850E94470B2E85CB
:1017D0003F85280F391F3F872E87DF91CF910895CE
:1017E00090E080E0FACFCF93DF931F92CDB7DEB7C2
:1017F0006983DC01ED91FC910280F381E02D41E0F1
:1018000050E0BE016F5F7F4F19950F90DF91CF9130
:10181000089580E0089590E080E00895FB01415034
:101820005109460F571FE417F50778F4208130E07F
:10183000322F22276181260F311D820F931F8217BD
:10184000930708F401963296EECFE417F50751F4AA
:10185000208130E0322F2227820F931F82179307B7
:1018600008F401960895CF92DF92EF92FF920F93C2
:101870001F93CF93DF93C82FE090CD04F12CFE2C63
:10188000EE244091CE044451550BE40EF51E48E081
:1018900050E067ED74E0C7018C0F911D0E940E0CA3
:1018A00008E0C13129F00091EB04069506950C7310
:1018B00010E0A8016FED74E00E940E0CEC010E1513
:1018C0001F0508F049C0A701401B510B80919C04E3
:1018D00062E270E081FF02C063E270E0600F711F9E
:1018E00080919D040E94310901977C0160E085E3AD
:1018F0000E94A4038AE30E94DC08D12CC12CCE14E0
:10190000DF04B8F480E00E94DC08082F10E0102FFC
:10191000002780E00E94DC08800F912F911DC80FE6
:10192000D91FC817D90708F4219682E0C80ED11C28
:10193000E6CFEC14FD0461F480E00E94DC0890E046
:10194000982F8827C80FD91FC817D90708F42196E0
:1019500061E085E30E94A4039C2F8D2FCD2B11F411
:101960008FEF9FEFDF91CF911F910F91FF90EF903D
:10197000DF90CF90089544E150E06BEC74E090E08C
:1019800080E00E940E0C009721F098278927982765
:1019900008958FEF9FEF0895FF920F931F93CF93BA
:1019A000DF93C0919C04C1FF66C020919A0430E08F
:1019B0004DEB54E061E070E080919D040E94470B84
:1019C000CD7FC0939C04F0909D04809112068823E3
:1019D00009F444C085E0F89EF0011124ED5EF94F52
:1019E00000811181C281D381C00FD11F60E0C80185
:1019F0000E94F109B80184E00E941B09BE016850F1
:101A0000710986E00E941B091AE0249740E86FE103
:101A100080E80E94E30840E86FE180EA0E94E30862
:101A20004AE06CE180EA0E94E30848E06FE180E868
:101A30000E94E3088CE10E94CB09082F8A70D1F341
:101A400048E06FE180EA0E94E30801FF2DC0CE016B
:101A50000E94060A85FF02C01150C1F6C0E08F2D1A
:101A60000E94A30810929D048C2FDF91CF911F91AB
:101A70000F91FF900895C091B504D091B604CE01A6
:101A8000089621F410929D04C0E0EECF0E94770AE0
:101A900080939D048823C1F39E014DEB54E061E0E7
:101AA00070E00E94470B8FCFC1E0D9CF0F931F93F7
:101AB000CF93DF93EC018C010B5F1F4F89910E9444
:101AC000A308FE0131971082C017D107B9F7DF9143
:101AD000CF911F910F910895CF93DF93EC018881EF
:101AE0000E94A308FE01CE01049621812193E817EC
:101AF000F907D9F71C82DF91CF910895CF93DF9337
:101B0000EC01E881F981008CF18DE02D1995882395
:101B100039F08C859D850296DF91CF910C94560DFE
:101B2000DF91CF9108950F931F93CF93DF931F926F
:101B3000CDB7DEB78C01DC01ED91FC91008CF18D0D
:101B4000E02D19958823B1F0D8011C96ED91FC91F8
:101B50008281882379F041E050E0BE016F5F7F4FC2
:101B60000E946709898190E00F90DF91CF911F91CA
:101B70000F9108958FEF9FEFF7CFCF93DF931F92D1
:101B8000CDB7DEB7DC01ED91FC910288F389E02D41
:101B900041E050E0BE016F5F7F4F1995181619069E
:101BA00034F4898190E00F90DF91CF9108958FEF09
:101BB0009FEFF9CF6F927F928F929F92AF92BF92D9
:101BC000CF92DF92EF92FF920F931F93CF93DF9309
:101BD0008C014B01EA01DC01ED91FC91008CF18D4F
:101BE000E02D1995882309F47BC0D8011C96ED914E
:101BF000FC918281882309F476C07E018EE1682EF3
:101C0000BE016E197F09680D791DD8011C96ED91F2
:101C1000FC91A70182810E9467096C01F801A484EC
:101C2000B584D50112967C90872D0E94C308C816F2
:101C3000D906E9F5EC18FD08C50102960E946C0D65
:101C4000F801A485B585EC916E9EF0011124EF5A40
:101C5000F84F818D84FF09C011968C911197982FB0
:101C6000967019F4886011968C93D8011C96ED91AA
:101C7000FC911D97828181112EC0818182FF05C058
:101C800011821D961C921E921C97CE018E199F09DF
:101C9000DF91CF911F910F91FF90EF90DF90CF9048
:101CA000BF90AF909F908F907F906F900895B5E018
:101CB0007B9EF0011124ED5EF94F808191818C0DA6
:101CC0009D1D91838083828193818C199D099383CB
:101CD0008283CE01DDCFE114F10409F091CFF9CF79
:101CE0008FEF9FEFD5CF90E080E0D2CFEF92FF92C1
:101CF0000F931F93CF93DF93EC01E881F981008C60
:101D0000F18DE02D19958823E1F00C851D85780172
:101D100082E0E80EF11C095F1F4FD0E0C0E0F70140
:101D200081917F010E94C308C80FD91FE016F106F8
:101D3000B1F7CE01DF91CF911F910F91FF90EF90FE
:101D40000895D0E0C0E0F5CFFC01448555854115EC
:101D5000510551F0FB01248535852115310521F010
:101D600081E04217530709F080E00895DC011C96DA
:101D7000ED91FC91309731F08281811105C0818114
:101D80008170089580E0089581E00895DC01ED916F
:101D9000FC91028CF38DE02D199591E0892708952F
:101DA000DC01ED91FC91048CF58DE02D199490915E
:101DB000C00095FFFCCF8093C6000895FC01808190
:101DC000882331F09091810091609093810010827E
:101DD00008952091810020FF05C01092810021E02C
:101DE000FC012083089590915C09891788F490E0A4
:101DF000880F991F2091590930915A09209159094A
:101E000030915A09820F931FFC01808191810895BE
:101E100090E080E00895FB01DC016D937C9368EC19
:101E20001994DC01E0915D0A8E2F881F8827881F96
:101E3000E0915E0AEF73EE0FE82B80915D0A8F77D9
:101E40008E17E1F021E02E0F922F9F7780915D0A8F
:101E500020FB87F980935D0A292F269590915E0AD1
:101E6000907C922B90935E0AF0E0EE0FFF1FE35AF6
:101E7000F64F808191818C9381E0089580E00895F0
:101E800020915F0B922F991F9927991F2091600B2A
:101E90002F73220F292B90915F0B9F77492F50E0D2
:101EA000BA016F5F7F4F26171706C9F0211105C0D1
:101EB00020915F0B2F772F3791F09F5F9F772091B5
:101EC0005F0B2078922B90935F0B440F551FFA0104
:101ED000E15AF54F90E09183808381E0089580E09E
:101EE00008958F929F92AF92BF92DF92EF92FF92EE
:101EF0000F931F93CF93DF931F92CDB7DEB7198255
:101F0000683C09F469C06A3C09F46BC06B3309F0A2
:101F100061C0CE0101960E94110F8091FE020E94C5
:101F2000F30EFC01D6808FE28D1508F453C0808536
:101F300048E5E42E42E0F42EE81AF10887FDF39418
:101F4000EE0CFF1CEE0CFF1C878108E810E0081B5C
:101F5000110987FD1395000F111F000F111F480174
:101F6000012E000CAA08BB08A981B0E0A53BB10571
:101F700014F0A4EBB0E097010F2C000C440B550BB0
:101F8000281939094A095B090E94AA4D24EB30E05F
:101F900040E050E00E94804D820E931EA41EB51EAC
:101FA000801691062CF087018E149F040CF4840196
:101FB00002501109000F111F2FB7F8948D2D90E0DA
:101FC000FC01EE0FFF1FE80FF91FE959FA4F1283CA
:101FD00001832FBF8AEC02C08091FD020E94400F56
:101FE00004C060EB7CE10E940B0F0F90DF91CF915A
:101FF0001F910F91FF90EF90DF90BF90AF909F9057
:102000008F900895EF92FF920F931F93CF93DF93DA
:102010001F92CDB7DEB72FEF2983683CF9F06A3CF9
:1020200009F4E5C0663309F049C0CE0101960E946B
:10203000110F8091FE020E94F30EE980FC01F480F2
:102040000E2D10E061E08F2D0E94D20301151105C5
:1020500051F460E08F2D0E94A40330C08091FD02F6
:102060000E94400FC8C00F3F110511F461E0F2CF8C
:10207000EF2DF0E0EC5EFC4FE491E150E23108F02E
:10208000B1C0F0E08827E85BFF4E8F4F0C94E5501D
:102090005A10601065106F107910F21083108B10B9
:1020A00093109D10A710B110C010CA10F210D410D8
:1020B000DE10E81084B5806884BDE7BC8AECD0CF20
:1020C00084B5806284BDE8BCF9CF809180008068CF
:1020D000809380001093890000938800EFCF809157
:1020E000800080628093800010938B0000938A00B0
:1020F000E5CF8091800088608093800010938D00F0
:1021000000938C00DBCF8091B00080688093B0009A
:10211000E092B300D3CF8091B00080628093B00092
:10212000E092B400CBCF80919000806880939000C3
:102130001093990000939800C1CF80919000806225
:102140008093900010939B0000939A00B7CF8091EA
:10215000900088608093900010939D0000939C00F5
:10216000ADCF8091A00080688093A0008091A000F6
:102170008F7B8093A0001093A9000093A8009ECFAE
:102180008091A00080628093A0001093AB00009328
:10219000AA0094CF8091A00088608093A000109343
:1021A000AD000093AC008ACF8091200180688093BD
:1021B0002001109329010093280180CF80912001F4
:1021C00080628093200110932B0100932A0176CF27
:1021D0008091200188608093200110932D0100934D
:1021E0002C016CCF003811050CF040CF32CF60EBE2
:1021F0007CE10E940B0F0F90DF91CF911F910F9107
:10220000FF90EF9008956531D9F020F4643171F0BA
:102210008AEC0AC0683C31F06A3CD1F760EB7CE1A3
:102220000C940B0F8091FD020C94400F8091FE02E4
:102230000E94F30E61E0FC0184810E94A403E8CFB8
:102240008091FE020E94F30E60E0F5CF683009F441
:102250004AC098F46330C1F130F4613091F168F113
:1022600061E77BE12CC06530A9F188F16630A9F106
:102270006730B1F160EB7CE122C06C30E9F130F401
:102280006A30B9F198F162E070E119C06E30D1F1B5
:10229000B0F16F30D1F1683C69F78DEF92E00E94A8
:1022A000110F8EEF92E00E94110F8091FE020E94AA
:1022B000F30EFC0182810C94400F63E071E10C94F9
:1022C0000B0F6FE779E1FBCF6AEE73E1F8CF62E8BD
:1022D00073E1F5CF61EA7AE1F2CF65E573E1EFCF23
:1022E00062E872E1ECCF6AE870E4E9CF6DE279E28E
:1022F000E6CF64E572E1E3CF6CE475E1E0CF64EE34
:1023000077E1DDCF63E578E1DACF61E77FE0D7CF32
:10231000CF93DF93EC018885662361F1813061F012
:1023200080F1823079F08330B9F088858F5F8370D7
:102330008887DF91CF91089560E08C810E94A4038B
:1023400061E024C060E08C810E94A40360E08D8184
:102350000E94A40361E01EC060E08C810E94A4037F
:1023600060E08D810E94A40360E08E810E94A4033E
:1023700061E014C0813031F378F38230E9F28330C8
:10238000A1F661E08C810E94A40360E08D810E942F
:10239000A40360E08E810E94A40360E08F810E940C
:1023A000A403C3CF0F931F93CF93DF93E091F60263
:1023B000F091F702C581D6810E942B040E851F85FE
:1023C00028893989061717072807390750F480919B
:1023D00070008D7F80937000DF91CF911F910F91DE
:1023E0000895E885F98580819D818923A9F78091E9
:1023F00070008D7F809370000E942B04AB01BC01A4
:102400008C859D85B0E0A0E00E851F8528893989DF
:10241000801B910BA20BB30B0D97A109B109840F7F
:10242000951FA61FB71F88839983AA83BB83C0917A
:10243000F602D091F702ED81FE8160817181828187
:10244000938129E330E040E050E00E94B24D3887AC
:102450002F83C2CFCF93C82F8091FB029091FC02B3
:102460000097B1F0DC01ED91FC910688F789E02D31
:102470001995882369F08091FB029091FC02DC01A0
:10248000ED91FC910190F081E02D6C2FCF9119948A
:102490008091FB029091FC02892B21F48C2FCF912B
:1024A0000C94D70ECF910895623321F130F460334C
:1024B00081F06133B9F08AEC0AC0683C31F06A3CC3
:1024C000D1F760EB7CE10C940B0F8091FD020C9432
:1024D000400F8091FE020E94F30EFC0186810E9453
:1024E0002A12E9CF8091FE020E94F30EFC0187813F
:1024F0001782F5CF8091FE020E94F30EFC018085C9
:102500001086EDCFFF920F931F93CF93DF931F920F
:102510001F92CDB7DEB719821A826B3209F485C0DB
:1025200048F4693209F452C008F05CC0683259F1CD
:102530008AEC26C0633309F484C080F46C32C1F79E
:102540008091FE020E94F30EDC011C96EC91F0E0FB
:10255000E85DFC4F80810E942A12EACF683C71F04E
:102560006A3C31F760EB7CE10E940B0F0F900F90FB
:10257000DF91CF911F910F91FF9008958091FD02FF
:102580000E94400FF3CFCE0101960E94110F80915F
:10259000FE020E94F30E8C01698170E090E080E001
:1025A0000E942E4F25E934E944E15EE30E940D507C
:1025B0009B01AC0160E070E080E292E40E94E34D98
:1025C0000E94FD4ED80119966C93B2CFCE010296AF
:1025D0000E94110F8091FE020E94F30E6A810E94F8
:1025E0008811A6CF82E00E94D402CE0102960E94FA
:1025F000110F8091FE020E94F30EFC012A8180914E
:1026000035089091360898278927982797878687D5
:102610002387E485F0E0E85DFC4F81E080838091D2
:10262000810081608093810083CF8091FE020E94AF
:10263000F30EDC011C96EC91F0E0E85DFC4F10829B
:1026400077CF8091FE020E94F30E8C01CE0101969D
:102650000E94110FCE0102960E94110FF80186858B
:102660009785892B09F464CFFA80698170E090E046
:1026700080E00E942E4F25E934E944E15EE30E94A8
:102680000D509B01AC0160E070E080E292E40E949A
:10269000E34D0E94FD4ED80119966C9319971B9635
:1026A000FC921B971C96EC91B5CFCF936E3301F142
:1026B00020F4673281F08AEC0BC0683C39F06A3C48
:1026C000D1F760EB7CE1CF910C940B0F8091FD0270
:1026D000CF910C94400F8091FE020E94F30EFC01FA
:1026E000C08581850E942A128C2F0E942A12E3CF76
:1026F0008091FE020E94F30EFC01C485858515863B
:102700001486F0CF0F931F93CF93DF931F92CDB713
:10271000DEB71982623209F450C030F46032B9F089
:102720006132A1F18AEC10C0683C61F06A3CD1F7DB
:1027300060EB7CE10E940B0F0F90DF91CF911F9116
:102740000F9108958091FD020E94400FF5CF809176
:10275000FE020E94F30E8C01FC0184810E940E0493
:102760008235F1E09F0771F0825591408F3F9105CE
:1027700009F050F4982F81E0F80126812917C0F064
:1027800080E016C080E0F6CF9FEFF5CF8091FE028B
:102790000E94F30EFC0184810E940E048235F1E058
:1027A0009F0771F3825591408F3F910509F018F40E
:1027B0000E942A12B7CF8FEFFBCF8091FE020E94BA
:1027C000F30E8C01CE0101960E94110F8981F80150
:1027D0008683A8CF683C81F06A3C89F06B3151F464
:1027E0008091FE020E94F30EFC0184810E947B0313
:1027F0000E942A128AEC01C08BE10C94400F60EB1E
:102800007CE10C940B0FFC0185810895FC0180850F
:102810000895FC0181850895FC0182850895FC01DD
:1028200081850895FC018185089586599F4FFC019B
:1028300080810895FC0185850895FC0187810895B4
:10284000FC0186810895FC0185810895FC01848145
:102850000895FC0184810895FC018581089521E19A
:1028600032E0FC0131832083738362838091FA021A
:102870008F5F8093FA0208950F931F93CF93DF9396
:1028800000D01F921F92CDB7DEB7660F660F6A5F4A
:1028900069831A825B832C833D83FC010181128151
:1028A000F80184819581059760F080810E94420241
:1028B00021E045E050E0BE016F5F7F4FC8010E94FC
:1028C00066080F900F900F900F900F90DF91CF91AF
:1028D0001F910F91089530E020E050E040E0CB964A
:1028E0000C943C149A0150E040E0CB960C943C14BC
:1028F0000F931F93CF93DF931F921F92CDB7DEB735
:1029000089836A830091A30B1091A40BF801848141
:102910009581029760F080810E94420221E042E0AE
:1029200050E0BE016F5F7F4FC8010E9466080F90A4
:102930000F90DF91CF911F910F91089541E066E0D4
:102940000E94B60610924108809340080895EF92C5
:10295000FF920F931F93CF93DF93FC01F180E080F0
:1029600008E010E0D0E8C0E061E08F2D0E94A403F1
:102970008E2D0E947B03019709F4CD2B60E08F2DF3
:102980000E94A403D6950150110971F78C2FDF9195
:10299000CF911F910F91FF90EF900895DF92EF92EA
:1029A000FF920F931F93CF93DF93EC0188810E94D6
:1029B0007B030197D9F3F12CF894CE010E94A71460
:1029C000082FCE010E94A714D82ECE010E94A71472
:1029D000E82E8A81803829F0803461F012E080325C
:1029E00051F061E089810E94A40360E089810E9426
:1029F000A4030BC013E061E089810E94A40360E09E
:102A000089810E94A4031150B1F7789407FF02C096
:102A1000FF24FA940E9483046B877C878D879E87AE
:102A20006E2D7D2D802F9F2D0E942E4FDF91CF91F7
:102A30001F910F91FF90EF90DF900895CF92DF925A
:102A4000EF92FF920F931F93CF938C01C5E0C12C9F
:102A5000D12C7601C8010E94CE149B01AC01C701A4
:102A6000B6010E94E44D6B017C01C15099F720E052
:102A700030E040EA50E40E94844E0E94F64EF80195
:102A80006383748385839683CF911F910F91FF9009
:102A9000EF90DF90CF9008958F929F92AF92BF9268
:102AA000CF92DF92EF92FF920F931F93CF93DF931A
:102AB000CDB7DEB7EC970FB6F894DEBF0FBECDBF33
:102AC000693309F45AC030F4673321F1683351F1A6
:102AD0008AEC1DC0683CC9F06A3CD1F760EB7CE130
:102AE0000E940B0FEC960FB6F894DEBF0FBECDBF61
:102AF000DF91CF911F910F91FF90EF90DF90CF90DA
:102B0000BF90AF909F908F9008958091FD020E949A
:102B1000400FE8CF8091FE020E94F30E0F960E94B4
:102B20001E15D6CF84E00E94D402C0903808D09001
:102B30003708E0903608F09035088091FE020E9438
:102B4000F30E8C010F960E941E1520E030E0A901C3
:102B5000B601C7010E947F4E882309F4B9CF9601C0
:102B6000A70160E070E080E89FE30E94844EF801D6
:102B7000668B778B808F918FABCF8091FE020E9406
:102B8000F30E8C01FC0187850E947B03892B09F0E1
:102B900086C07801FFE0EF0EF11CF80182A18230BF
:102BA000A1F048F4813099F1C7010E94CE1420E0D1
:102BB00030E0A90129C0833011F08430A9F7C701A2
:102BC0000E94CE146B017C013EC0CE0101966C01C7
:102BD0004E019DE0890E911C5601C7010E94CE1442
:102BE000F60161937193819391936F01E815F90553
:102BF000A1F763E0C5010E944E0220E030E0A90188
:102C00006D817E818F8198850E94E44DDBCFCE015E
:102C100001966C014E019DE0890E911C5601C70181
:102C20000E94CE14F60161937193819391936F0189
:102C30008E169F06A1F763E0C5010E944E02CD806B
:102C4000DE80EF80F884F801628973898489958930
:102C50000E942E4F9B01AC01C701B6010E94E34DBB
:102C6000F80126893789408D518D0E940D500E94B0
:102C7000F64EF80160A771A782A793A769837A83AC
:102C80008B839C8389810E942A128A810E942A1246
:102C90008B810E942A128C810E942A1219CF8FEFF9
:102CA00090EEA5EFB5E0F80180A791A7A2A7B3A782
:102CB0008FEF898380EE8A8385EF8B8385E08C8319
:102CC000E1CF862F642F41E00E94B60610924108A2
:102CD0008093400808950F931F93CF93DF93EC01E7
:102CE000162F8B810E94420289819A81DC01ED912D
:102CF000FC910190F081E02D612F199589819A81D5
:102D00000E940608888342E06B8189819A810E9433
:102D1000611689819A81DC01ED91FC910284F38531
:102D2000E02D199500E0182F89819A81DC01ED9141
:102D3000FC910284F385E02D1995802B912BDF9176
:102D4000CF911F910F9108951F93CF93DF93EC01C3
:102D5000162F8B810E94420289819A81DC01ED91BC
:102D6000FC910190F081E02D612F199589819A8164
:102D70000E940608888341E06B8189819A810E94C4
:102D8000611689819A81DC01ED91FC910284F385C1
:102D9000E02D1995DF91CF911F910895CF93DF9387
:102DA000EC01462F416060E00E943E080E948304CF
:102DB00078876F8363E1CE010E94A416877089F43F
:102DC0008C819D81892BB1F30E9483042F813885EA
:102DD000621B730B8C819D818617970758F780E0E3
:102DE0000BC041E06BE0CE010E943E0840E060E095
:102DF000CE010E943E0881E0DF91CF9108958F922D
:102E00009F92AF92BF92CF92DF92EF92FF920F9379
:102E10001F93CF93DF936C017B01EA0160E50E9471
:102E2000A4168F5F880F90E09983888366E4C601BB
:102E30000E94A416082F10E00F5F1F4F1D830C8304
:102E4000A881B0E020E03FE24AE350E00E949F4DBD
:102E50006C507E4F8F4F9F4F38EE832E33E0932E72
:102E6000A12CB12CA50194010E94B24DD8010E9461
:102E7000AA4D6C507E4F8F4F9F4FA50194010E9429
:102E8000B24D2A873B874C875D8761E5C6010E946A
:102E90006B168C01112702C0000F111F9A95E2F7E3
:102EA0000F5F1F4F1F830E83A881B0E020E03FE239
:102EB0004AE350E00E949F4D6C507E4F8F4F9F4FD2
:102EC000A50194010E94B24DD8010E949F4D6C5003
:102ED0007E4F8F4F9F4FA50194010E94B24D2E87C8
:102EE0003F87488B598B60E7C6010E94A4168F5F0D
:102EF000880F90E09B838A8361E7C6010E946B166E
:102F00009C01992702C0880F991F3A95E2F7019614
:102F100099878887F7012381222331F02E813F8111
:102F2000821B930B99878887AA81B0E020E03FE25B
:102F30004AE350E00E949F4D6C507E4F8F4F9F4F51
:102F400028EEC22E23E0D22EE12CF12CA70196010F
:102F50000E94B24DA885B9850E949F4D6C507E4F4E
:102F60008F4F9F4FA70196010E94B24D2A8B3B8B3A
:102F70004C8B5D8BDF91CF911F910F91FF90EF9064
:102F8000DF90CF90BF90AF909F908F900895CF9398
:102F9000DF93EB0161E00E94A41684FB992790F96E
:102FA000988383FB992790F99A8382FB992790F95C
:102FB000998386FB992790F99B83881F8827881F10
:102FC0008C83DF91CF910895EF92FF920F931F931F
:102FD000CF93DF93683C09F447C06A3C09F459C0B9
:102FE0006A3309F03FC08091FE020E94F30EEC01AB
:102FF0007C018AE0E80EF11C0E9483047A8B698BC5
:1030000063E1C7010E94A4168770C1F58E859F8574
:10301000892BB1F30E94830429893A89621B730BBF
:103020008E859F858617970758F781E0888B0FEF6D
:103030001FEFB80190E080E00E942C4FF72E8C012A
:10304000862F9F2DD801888F998FAA8FBB8F0E94C2
:103050002A128F2D0E942A12802F0E942A12812F5D
:103060000E942A128AEC02C08091FD02DF91CF916A
:103070001F910F91FF90EF900C94400F6EE1C701EC
:103080000E946B168C0141E06BE0C7010E943E0874
:10309000D0CF60EB7CE1DF91CF911F910F91FF903A
:1030A000EF900C940B0F0F931F93CF93DF936D331F
:1030B00009F449C020F46C33B1F08AEC0EC0683CCE
:1030C00051F06A3CD1F760EB7CE1DF91CF911F9129
:1030D0000F910C940B0F8091FD02DF91CF911F9106
:1030E0000F910C94400F8091FE020E94F30E8C0110
:1030F00086E30E9442026CE082EB98E00E94D207D5
:1031000082EB98E00E94060890E0F801968B858B90
:1031100042E066E382EB98E00E9461160E94C102E1
:10312000EC010E94C102DD27F801038802C0CC0F28
:10313000DD1F0A94E2F7C82B8D2F0E942A128C2FD4
:103140000E942A12BACF8091FE020E94F30EFC0167
:10315000C1898289F2CF0F931F93CF93DF93EC0144
:10316000142F8C85413009F06CC083FF6EC0613034
:1031700009F08BC0885F01C080518C874FEF0FEF43
:103180008C858F738C8780E1489FA00111246C810E
:103190008D859E850E947214E0E10E9FA00111248E
:1031A0006F818D859E850E9472148C85143009F084
:1031B0008AC010E0803108F413E090EF980F90314E
:1031C00008F4166090EE980F903108F41C6080535C
:1031D000803108F419608D859E856E8110FF83C053
:1031E00030E020E040E050E1CB960E943C148D8519
:1031F0009E85688511FF7AC030E020E040E050E114
:10320000CB960E943C148D859E856D8112FF71C006
:1032100030E020E040E050E1CB960E943C148D85E8
:103220009E85698513FF68C030E020E040E050E1F2
:10323000CB960E943C148C85DF91CF911F910F910A
:103240000895423039F483FF92CF613009F094CF72
:10325000805F93CF433009F48ACF443009F08ECF9A
:103260006130A9F48F5F8C878C858F738C87282FB2
:1032700030E0F901EE53FD4F803158F4A2EDB2E099
:10328000A21BB30B4C9100817BCF885076CF81502D
:10329000EACF90EF980F903138F470974081E2EECA
:1032A000F2E0E21BF30BEFCF8052803138F4A2EF53
:1032B000B2E0A21BB30B4C91B097E5CFF0974081E1
:1032C000E2E0F3E0EECF90E023E0959587952A9534
:1032D000E1F710E0883091050CF07DCF86549D4FCA
:1032E000FC01108178CF0E946B1481CF0E946B1477
:1032F0008ACF0E946B1493CF0E946B149CCFFF92D5
:103300000F931F93CF93DF9300D0CDB7DEB7198211
:103310001A821B826D3109F4D4C0B8F5673109F403
:1033200099C028F4663109F45BC08AEC56C0683154
:1033300009F4B2C06931C9F782E00E94D402CE011B
:1033400002960E94110FCE0101960E94110F8091EA
:10335000FE020E94F30EFC0129813A81809135081A
:1033600090913608982789279827938782873487F2
:103370002587E781F0E0E05EFC4F81E0808380916B
:103380008100816080938100D0CF643309F4A5C0AF
:1033900080F46E3151F68091FE020E94F30EDC0142
:1033A0001796EC91F0E0E05EFC4F80810E942A12BB
:1033B000BCCF683C81F06A3C09F0B7CF60EB7CE1A0
:1033C0000E940B0F0F900F900F90DF91CF911F91E4
:1033D0000F91FF9008958091FD020E94400FF2CF5F
:1033E0008091FE020E94F30EDC0115960D911C9156
:1033F000F8016581858596850E946B14D801169623
:103400006C9116971D968D919C910E946B14F801FA
:103410006085858596850E946B14D80119966C91FC
:1034200019971D968D919C910E946B1450E040E07D
:10343000F8016481858596850E94721450E040E011
:10344000D80117966C9117971D968D919C910E94AB
:1034500072146BCFCE0103960E94110F8091FE0271
:103460000E94F30E8C016B8170E090E080E00E947E
:103470002E4F2BE93AE94AE95EE30E940D509B0189
:10348000AC0160E070E080EA92E40E94E34D0E94AB
:10349000FD4EF801668749CFCE0102960E94110FBA
:1034A000CE0101960E94110F8091FE020E94F30E40
:1034B00049816A81DC0115968D919C910E94AB181F
:1034C00034CF8091FE020E94F30EDC011796EC913E
:1034D000F0E0E05EFC4F108228CF8091FE020E9457
:1034E000F30E8C01CE0103960E94110FCE010296BD
:1034F0000E94110FF80182859385892B09F415CF5D
:10350000FA806B8170E090E080E00E942E4F2BE902
:103510003AE94AE95EE30E940D509B01AC0160E08C
:1035200070E080EA92E40E94E34D0E94FD4ED801D3
:103530001E966C931E971C96FC921C971796EC9106
:1035400019CFCF92DF92EF92FF920F931F93CF93F9
:10355000DF931F92CDB7DEB71982653209F460C0E0
:1035600038F4633281F1643209F44DC08AEC28C02A
:10357000683C21F16A3C09F4A6C06632B9F7809133
:10358000FE020E94F30E8C017C01B8E0EB0EF11CF0
:10359000C7010E94E90EF80104811581D801119636
:1035A0006C91119713968D919C910E946B14F80168
:1035B0006281838194810E946B1423C08091FD02FB
:1035C0000E94400F84C0CE0101960E94110F80918D
:1035D000FE020E94F30E6C0119817C0188E0E80E66
:1035E000F11CC7010E94E90ED6011496ED91FC91E1
:1035F000B0E11B9FA00111246081838194810E940E
:103600007214C7013BC08091FE020E94F30EFC01C0
:103610008781813019F482E08783A8CF81E0FCCFD5
:103620008091FE020E94F30E7C016C01E8E0CE0E58
:10363000D11CC6010E94E90ED70114960D911C9170
:10364000159717968C918230E1F0843061F18130CA
:10365000A1F4F8016281838194810E946B14D801E6
:1036600013968D919C91149730E020E040E050E15A
:1036700011966C91CB960E943C14C6010E94DE0EFE
:1036800075CFF8016181838194810E946B14D80108
:1036900013968D919C91149730E020E040E050E12A
:1036A00012966C91E7CFF8016181838194810E9429
:1036B0006B14D80112966C91129713968D919C9170
:1036C0000E946B14DACF60EB7CE10E940B0F0F902D
:1036D000DF91CF911F910F91FF90EF90DF90CF90EE
:1036E0000895CF92DF92EF92FF920F931F93CF93A3
:1036F000DF93683C09F465C06A3C09F49AC06A31FA
:1037000009F05DC08091FE020E94F30E8C01FC0165
:10371000C581D681EA85FB8580819C81892B808348
:10372000EE81FF8180819C81892B80838BE290E0F8
:103730000197F1F7EE81FF8190818C81809589233B
:1037400080838A89882339F0EA85FB8590818C8182
:10375000809589238083E885F98580819D818923EF
:1037600029F50E942B04AB01BC018C859D85B0E03E
:10377000A0E08855994EAF4FBF4F840F951FA61FED
:10378000B71F8E879F87A88BB98BE885F9858081C5
:103790009D81892309F50E942B04CE84DF84E8886B
:1037A000F988C616D706E806F90678F7F801C78142
:1037B000D0858D2F0E942A128C2F0E942A128AEC0B
:1037C00001C08AE1DF91CF911F910F91FF90EF909F
:1037D000DF90CF900C94400F0E942B042C853D85E8
:1037E000620F731F811D911D6E877F87888B998B58
:1037F00082ED91E19093660580936505809170005C
:103800008D7F809370008091B6008F7D8093B6008D
:1038100082E08093B00084E08093B1001092B20007
:1038200085E08093B3008091700082608093700087
:10383000BDCF60EB7CE1DF91CF911F910F91FF90A5
:10384000EF90DF90CF900C940B0FEF92FF920F93BD
:103850001F93CF93DF93EC018FEF2097F1F000914E
:103860005C0910915B091017E8F5812F90E0039631
:10387000880F991F009711F481E090E00E94ED50AD
:103880007C01892BA9F48FEF0E942A12E881F9812B
:103890000190F081E02DCE0119950E942A128AEC48
:1038A000DF91CF911F910F91FF90EF900C94400FFB
:1038B0001D5F10935B098091590990915A09DC01B1
:1038C000F70120E0021731F04D915D914193519342
:1038D0002F5FF8CF009711F00E948951F0925A099A
:1038E000E09259092091590930915A0980915C0957
:1038F00091E0980F90935C0990E0880F991F820FD8
:10390000931FFC01D183C083C1CFCF93C0E08091CE
:10391000590990915A0920915C09C217D0F42C2FB3
:1039200030E0220F331F820F931FFC0180819181B1
:10393000FC01228133812C30310531F038F0203107
:10394000310520F0CF5FE3CF0097E1F30E9489516A
:10395000F9CF009719F0CF910C948951CF91089528
:10396000CF93DF931F92CDB7DEB71982633021F179
:1039700030F4613099F06230C9F089EC0CC06530E8
:10398000C1F048F1693CC9F7CE0101960E94110FC0
:10399000882399F389810E94400F04C069EB7DE17F
:1039A0000E940B0F0F90DF91CF91089566E271E1B5
:1039B000F7CF6DE070E4F4CF82E00E94D402609112
:1039C00035087091360876276727762790E080E0E3
:1039D0000E945004D2CF85E00E942A120E94851CCA
:1039E00088E198E00FB6F894A895809360000FBE28
:1039F0009093600068EC70E080E090E00E945004DA
:103A0000D1CFAF92BF92CF92DF92FF920F931F93CD
:103A1000CF93DF931F92CDB7DEB7F090670BF09294
:103A2000A20B86E090E00E94ED508C01DC01FC923C
:103A300082EB98E012969C938E93119713961C92AA
:103A4000139780E290E015969C938E9314971093B1
:103A5000A40B0093A30B0E948E0581E0F8018383E1
:103A6000C8010E948408F82E882309F476C060E01B
:103A700080E00E94781480E496E09093690B809334
:103A8000680B19820091A30B1091A40BD801149616
:103A90008D919C911597892BC9F18C910E944202BE
:103AA00020E041E050E0BE016F5F7F4FC8010E94FF
:103AB0006608882359F1F801C480D58061E0C114FB
:103AC000D10409F460E0A62EB12C462FD8018C91C8
:103AD0000E94B60610924108809340088A151B0484
:103AE000A9F490E080E08A159B0570F4F8018181CB
:103AF0009281DC01ED91FC910284F385E02D199512
:103B0000898381E090E0EFCFCD28A9F21981612F60
:103B10006F76606180E00E94781463E08EEF0E940F
:103B20007814612F80E00E94781465E070E080E0F6
:103B300090E00E945004612F616A80E00E94781436
:103B400010E030E020E050E040E0612F82EA9BE0AE
:103B50000E943C141F5F1031A1F78F2D0F90DF9151
:103B6000CF911F910F91FF90DF90CF90BF90AF90BA
:103B700008953F924F925F926F927F928F929F92A1
:103B8000AF92BF92CF92DF92EF92FF920F931F936B
:103B9000CF93DF93CDB7DEB7E1970FB6F894DEBFD2
:103BA0000FBECDBF162F18AA19AA693009F462C337
:103BB00008F07CC0643009F474C250F4623009F437
:103BC0000BC108F0D8C1613009F4E5C08AECE0C04F
:103BD000663009F49FC208F482C2673009F406C354
:103BE0006830A1F784E00E94D40280E190E00E9456
:103BF000ED508C01F0903808E0903708D0903608EE
:103C0000C090350867E070E00E942F1484E492E0D1
:103C1000D8018D939C9361E08C2D0E94D20361E0CA
:103C20008D2D0E94D20361E08E2D0E94D20361E0AF
:103C30008F2D0E94D203F801C482D582E682F782DA
:103C4000E091F90281E08E0F8093F902D8011C9671
:103C5000EC931C978091FA0281501D968C931D97CE
:103C600018961C9218971A961C921A971F961C92D7
:103C70001E921E9781E01B968C931B9783E01996EA
:103C80008C93F0E0E85DFC4F1082EEE2F3E090E010
:103C900080E021913191232B09F0E6C2880F991F12
:103CA000FC01E25DFC4F11830083F4C16E3009F426
:103CB0006BC408F057C06B3009F40EC408F4C4C3D9
:103CC0006C3009F43CC46D3009F080CF82E00E9472
:103CD000D4028CE290E00E94ED508C01F090360806
:103CE000E09035086CE070E00E942F1487ED92E0C0
:103CF000F8019183808380E8818B128A138A148A69
:103D0000158A80E090E0A0E8BFE3868B978BA08FB8
:103D1000B18F128E138E148E158E168E178E10A2E2
:103D200011A212A213A214A215A216A217A2E48233
:103D3000F5828091FA028150828760E08E2D0E9488
:103D4000D20361E08F2D0E94D20360E08F2D0E948C
:103D5000A40361E08F2D0E94A4038BEF90E00197F4
:103D6000F1F7B5C3603111F40C94442810F40C94AD
:103D70000428683C41F06A3C09F028CF60EB7CE104
:103D80000E940B0FD7C0CE01C0960E94110F88A9C8
:103D90000E94400FCFC0CE01C1960E94110F86E055
:103DA00090E00E94ED508C01F9A870E060E00E9464
:103DB0002F1487E192E0D80111969C938E9314966C
:103DC000FC9214978091FA02815015968C9361E0D1
:103DD0008F2D0E94D2035EC1CE01C1960E94110FA9
:103DE00082E00E94D402C0903508D0903608DC24CE
:103DF000CD24DC2480E190E00E94ED507C0109A9F3
:103E000061E070E00E942F148DE192E0F701918350
:103E100080838091F802811105C00E94011D81E01C
:103E20008093F802D70117960C9317971996DC9296
:103E3000CE9218978091FA02815014968C93149721
:103E40001B961C921E921A9781E01C968C931C97CD
:103E500082E01D968C931D9780E51E968C931E978D
:103E60001F961C9290E080E0033008F03FC09FEF67
:103E7000900F292F30E0F90184E0EE0FFF1F8A95A3
:103E8000E1F7DF01A959B44F9A968C919A97811165
:103E900025C09A969C939A979696DC92CE92959787
:103EA00047E65BE099965C934E93989791115AC0C0
:103EB0008CE09BE049E05AE06DE018E0E959F44FEE
:103EC000178F62A3D90114E0AA0FBB1F1A95E1F75F
:103ED000A957B44F5C9341A393A384A3C90174E091
:103EE000880F991F7A95E1F78E57944FF7019683C3
:103EF0008583E02FF0E0E05EFC4F10828091230389
:103F000090912403892BA1F18091250390912603A0
:103F1000892B49F481E090E0880F991FFC01ED5D49
:103F2000FC4FF182E08283E0D7011E968C93C7019B
:103F30000E94251CE1960FB6F894DEBF0FBECDBFE0
:103F4000DF91CF911F910F91FF90EF90DF90CF9075
:103F5000BF90AF909F908F907F906F905F904F90A9
:103F60003F90089586E095E043E054E067E0A6CFF7
:103F700090E080E0D1CF82E00E94D40289E090E01E
:103F80000E94ED508C01E0903608F090350862E018
:103F900070E00E942F1483E292E0F8019183808305
:103FA00060E08F2D0E94D20360E08E2D0E94D2032C
:103FB0008091FA028150D80114968C93149716962A
:103FC0001C921E92159783E190E00E94ED50DC0157
:103FD0002F2D30E0F901EC52FC4F849114968C9314
:103FE00014974E2D50E0FA01EC52FC4FE4911596D7
:103FF000EC93159722573C4FF9019491E92FF0E08B
:10400000EE0FFF1FE650FD4F6591749117967C935C
:104010006E931697FA01E257FC4FE491F0E0EE0F31
:10402000FF1FEC58FC4F4591549119965C934E93A9
:104030001897F9012491E22FF0E0EE0FFF1FE65AE6
:10404000FC4F259134911B963C932E931A9791E047
:10405000EF1090E052969C9352974BE654E61D96D3
:104060005C934E931C97F9019081892B808316965F
:10407000ED91FC911797908114968C9114978095EF
:1040800089238083F801B683A583AB2B29F48FEFB6
:104090000E942A12C8014CCF1093F7020093F60237
:1040A000F9CFCE01C1960E94110F86E090E00E94E8
:1040B000ED508C01F9A863E070E00E942F1487E1B5
:1040C00092E0D80111969C938E931496FC921497CB
:1040D0008091FA02815015968C9360E079CECE01E2
:1040E000C1960E94110F87E090E00E94ED508C0174
:1040F000F9A864E070E00E942F1489E292E0F801D0
:1041000091838083F4828091FA028150858384E1D7
:104110008683C0CFCE01C1960E94110F89E090E046
:104120000E94ED507C0109A965E070E00E942F1407
:1041300088E392E0D7018D939C938091F8028111DE
:1041400005C00E94011D81E08093F8028091FA026F
:104150008150F701868381E08783108690E080E0BC
:104160000530F0F50150202F30E096E0929FF001ED
:10417000939FF00D1124E959F44F408541112AC055
:104180000087A9014F5F5F4F949FF001959FF00D4D
:104190001124E959F44F47E65BE05183408395E0F1
:1041A00047E0033060F4F901EF5CFD4F4081F90115
:1041B000E25DFD4F9081F901E55DFD4F108156E014
:1041C000529FF001539FF00D1124E959F44F43839E
:1041D00094831583F6E00F9FC00111248659944FF4
:1041E000D70115969C938E931497A1CECE01C196BC
:1041F0000E94110F8EE090E00E94ED508C01F9A812
:1042000066E070E00E942F148EE392E0F801918343
:10421000808315861486F482158213861286168290
:10422000118610868091FA028150878360E08F2D7D
:104230000E94D203EAE3F3E090E080E02191319123
:10424000232B41F4880F991FFC01E65CFC4F11837E
:10425000008304C001968430910581F7809181002C
:1042600081608093810016CF01968630910509F018
:1042700010CD10CF83E790E00E94ED508C0168E0F4
:1042800070E00E942F148AE492E0F8019183808309
:1042900088E684838FE892ECA5E7BFE38583968365
:1042A000A783B0878AE097EDA3E2BDE38187928779
:1042B000A387B48780E090E0A0E8B6E4858796877E
:1042C000A787B08B80E090E0A3E0B3E4818B928B72
:1042D000A38BB48B88EC858B80918100F12C80FFBF
:1042E00005C081E080932703FF24F3948091BC00F4
:1042F000811105C00E948E0580ED8093BA00D8011F
:1043000014968C910E9442028BE690E00E94010874
:1043100090E080E00E94010881E00E94C60566E905
:1043200070E080E090E00E945004F80112AA13AA05
:1043300014AA15AAD80116A617A610AA11AA12A681
:1043400013A614A615A6FE9610821182128213825D
:10435000DA961D921D921D921C92DD97F80116AA05
:1043600017AA10AE11AEEA5BFF4F108211821282C3
:1043700013823497108211821282138270961082F7
:104380001182128213823497108211821282138258
:10439000349710821182128213825A961D921D92B6
:1043A0001D921C925D97F801168A178A108E118E45
:1043B00096961D921D921D921C92999712A213A27D
:1043C00014A215A25E961D921D921D921C929197A9
:1043D000E25AFF4F108211821282138234971082A8
:1043E00011821282138234971082118212821382F8
:1043F000709610821182128213820E9483046801D7
:10440000B2E6CB0ED11C0E942C4FF6016083718363
:104410008283938338968091FA028150808310932F
:104420001F0300931E0366E970E080E090E00E94A5
:10443000500480918100816080938100FF2009F405
:1044400029CE1092270326CE85E00E94D40280E177
:1044500090E00E94ED508C01D0903908C09038084F
:10446000B0903708F0903608E090350869E070E0C9
:104470000E942F1480E592E0D8018D939C9361E017
:104480008E2D0E94D20361E08F2D0E94D20361E045
:104490008B2D0E94D20361E08C2D0E94D20360E03C
:1044A0008D2D0E94D203F801E482F582B682C78284
:1044B000D0868091FA0281508187178616861586EC
:1044C00014861386128661E08E2D0E94A40360E09C
:1044D0008F2D0E94A403DECDCE01C1960E94110F44
:1044E0008AE090E00E94ED508C01F9A86AE070E04B
:1044F0000E942F1486E592E0D8018D939C9362E090
:104500008F2D0E94D203F801F48216821782108642
:104510008091FA0281508187EFEFF2E090E080E035
:1045200021913191232B31F4880F991FFC01E15027
:10453000FD4F8DCE01968F30910591F78FCECE0134
:10454000C1960E94110F86E090E00E94ED508C0110
:10455000F9A86BE070E00E942F1487E192E0D80187
:1045600011969C938E931496FC9214978091FA0264
:10457000815015968C9361E08F2D0E94D20361E0EB
:104580008F2D0E94D203A3CF8CE190E00E94ED50CA
:104590008C016DE070E00E942F148CE592E0F80130
:1045A0009183808380E5848322EB38E034872387FE
:1045B00089E2858717861686108A398F288F8A8F19
:1045C0001C8E1B8E1D8E8091FA02815081870E9465
:1045D0008E0560ECCE0147960E94A4168E3E09F02F
:1045E000B1C069E8CE0147960E94A416482F4160E9
:1045F00069E8CE0147960E943E0840E068E8CE0197
:1046000047960E943E0841E060E8CE0147960E942E
:104610003E0841E06FEFCE0147960E943E0840E021
:1046200060E0CE0147960E943E0861E9CE014796C0
:104630000E94A41688A341E060E0CE0147960E9444
:104640003E0840E06FEFCE0147960E943E0840E0F2
:1046500060E8CE0147960E943E0860E6CE0147968C
:104660000E94A416482F426160E6CE0147960E9440
:104670003E0840E250E064E4CE0147960E940908FB
:104680004FEF61E0CE0147960E943E0841E060E8AE
:10469000CE0147960E943E0841E06FEFCE0147965B
:1046A0000E943E0840E060E0CE0147960E943E082E
:1046B00046E06FEFCE0147960E943E0863E8CE01C8
:1046C00047960E94A416482F446063E8CE0147969F
:1046D0000E943E0847E06FEFCE0147960E943E08D9
:1046E00041E061E8CE0147960E943E0841E060E863
:1046F000CE0147960E943E084BE664E9CE014796FC
:104700000E943E0840E063E8CE0147960E943E08C2
:104710000E9483047F8F6E8F63E8CE0147960E94CC
:10472000A416811140C08B8D9C8D892BA9F30E940A
:1047300083042E8D3F8D621B730B8B8D9C8D861792
:10474000970750F741E060E8CE0147960E943E0887
:1047500041E06FEFCE0147960E943E0840E060E0E6
:10476000CE0147960E943E0848A161E9CE014796D6
:104770000E943E0841E060E0CE0147960E943E085C
:1047800040E06FEFCE0147960E943E0840E060E8AF
:10479000CE0147960E943E0842E060E0CE01479677
:1047A0000E943E0877CC41E063E8CE0147960E9424
:1047B0003E0862E9CE0147960E94A416C82E40E04A
:1047C00061E8CE0147960E943E0846E06FEFCE01B9
:1047D00047960E943E0863E8CE0147960E94A416C1
:1047E000482F4B7F63E8CE0147960E943E0841E088
:1047F0006FEFCE0147960E943E0841E060E0CE0197
:1048000047960E943E0840E06FEFCE0147960E9417
:104810003E0840E060E8CE0147960E943E088A8D3F
:104820000E944202888D998DDC01ED91FC910190EE
:10483000F081E02D60EB1995888D998D0E94060816
:104840008F8B46E06A8D888D998D0E9461167E015E
:10485000B5E2EB0EF11C370147E0D42EDA94DD20EF
:1048600069F0888D998DDC01ED91FC910284F385CE
:10487000E02D1995F30181933F01F0CF41E06FEFF7
:10488000CE0147960E943E0840E06FE4CE01479675
:104890000E943E084CE26EE4CE0147960E943E081C
:1048A00040E06FEFCE0147960E943E0844EB66EB76
:1048B000CE0147960E943E08BCE0C7FEB0E0A0E0F3
:1048C00090E061E070E08C2D8F77492F46954695FA
:1048D000469550E0F701E40FF51F2081F92FF7709E
:1048E000DF2E9B1710F0A8132DC0F701E40FF51F62
:1048F000AB0101C0440FDA94EAF7409524232083EA
:104900009F5F903311F78A8D0E944202888D998DA6
:10491000DC01ED91FC910190F081E02D60EB1995A7
:1049200037E0D32E888D998DDA94DD20A9F0F70138
:1049300061917F01DC01ED91FC910190F081E02D0E
:104940001995F0CF30E002C035952795FA95E2F73A
:1049500020FFD6CFAF5FD4CF0E9406088F8B41E0F7
:104960006FEFCE0147960E943E0840E060E0CE0126
:1049700047960E943E0840E06FEFCE0147960E94A6
:104980003E0840E069E0CE0147960E943E0840E0C4
:1049900060E1CE0147960E943E0840E061E1CE0111
:1049A00047960E943E0841E064E2CE0147960E948D
:1049B0003E084FEF65E2CE0147960E943E0840E078
:1049C00065E7CE0147960E943E0841E06FEFCE01B9
:1049D00047960E943E084CE26EE4CE0147960E9444
:1049E0003E0840E068E4CE0147960E943E0840E25F
:1049F00060E3CE0147960E943E0840E06FEFCE0193
:104A000047960E943E0849E060E3CE0147960E9427
:104A10003E0840E064E5CE0147960E943E0844E02F
:104A200061E3CE0147960E943E0843E062E3CE0177
:104A300047960E943E0843E860E4CE0147960E94F4
:104A40003E0845E266E4CE0147960E943E0840E0FB
:104A500060E6CE0147960E943E0840E067E2CE0144
:104A600047960E943E0846E060E5CE0147960E94C8
:104A70003E0840E061E5CE0147960E943E0846E9C7
:104A800062E5CE0147960E943E0848E066E5CE0109
:104A900047960E943E0840E367E5CE0147960E9494
:104AA0003E0840E061E6CE0147960E943E0840E0A5
:104AB00062E6CE0147960E943E0840E064E6CE01E1
:104AC00047960E943E0840E065E6CE0147960E9468
:104AD0003E0840EA66E6CE0147960E943E0841E065
:104AE0006FEFCE0147960E943E0842E362E2CE019C
:104AF00047960E943E0844E167E4CE0147960E9433
:104B00003E084FEF69E4CE0147960E943E0840E020
:104B10006AE4CE0147960E943E0840E06FEFCE0166
:104B200047960E943E084AE06AE7CE0147960E94F7
:104B30003E0840E06BE7CE0147960E943E0841E206
:104B400068E7CE0147960E943E0841E06FEFCE0134
:104B500047960E943E0844E363E2CE0147960E94D6
:104B60003E0840E062E4CE0147960E943E084FEFC7
:104B700064E4CE0147960E943E0846E265E4CE0119
:104B800047960E943E0845E066E4CE0147960E94A3
:104B90003E0840E460E4CE0147960E943E0846E0AD
:104BA0006EE0CE0147960E943E084AE160E2CE01E7
:104BB00047960E943E0840E463E4CE0147960E9477
:104BC0003E0840E06FEFCE0147960E943E0843E06A
:104BD00064E3CE0147960E943E0844E465E3CE01BB
:104BE00047960E943E0841E06FEFCE0147960E9433
:104BF0003E0844E061E3CE0147960E943E0849E04A
:104C00006BE4CE0147960E943E0845E06CE4CE017D
:104C100047960E943E0844E06DE4CE0147960E940C
:104C20003E0840E06FEFCE0147960E943E0840E00C
:104C300064E4CE0147960E943E0840E265E4CE015E
:104C400047960E943E0848E067E4CE0147960E94DE
:104C50003E0848E268E4CE0147960E943E0840E0E4
:104C600067E6CE0147960E943E0844E060E7CE0129
:104C700047960E943E0841E061E7CE0147960E94B8
:104C80003E084EEF62E7CE0147960E943E0840E0A4
:104C900066E7CE0147960E943E0840E067E7CE01F6
:104CA00047960E943E0841E06FEFCE0147960E9472
:104CB0003E0841E06DE0CE0147960E943E0840E08C
:104CC0006FEFCE0147960E943E0841E060E8CE01BA
:104CD00047960E943E0848EF61E0CE0147960E9449
:104CE0003E0841E06FEFCE0147960E943E0841E04A
:104CF0006EE8CE0147960E943E0841E060E0CE019A
:104D000047960E943E0840E06FEFCE0147960E9412
:104D10003E0840E060E8CE0147960E943E0844E02D
:104D20006AE0CE0147960E943E0864E8CE014796AD
:104D30000E94A416482F4F7E64E8CE0147960E9439
:104D40003E0841E06BE0CE0147960E943E08BE015E
:104D5000655D7F4FCE0147960E94C717AE014F5F3A
:104D60005F4FBE01655D7F4FCE0147960E94FF16E3
:104D70008BA5882309F4F1C08B859C85AD85BE8504
:104D80008C57924FAF4FBF4F2DA5222309F4EAC095
:104D90004B855C856D857E854E545D4F6F4F7F4F93
:104DA000440F551F661F771F840F951FA61FB71F3F
:104DB0002EA5222361F04F85588969897A894C563E
:104DC0005D4F6F4F7F4F840F951FA61FB71F2FA5F5
:104DD000222361F04B895C896D897E894A5D5D4F34
:104DE0006F4F7F4F840F951FA61FB71F89A39AA3EC
:104DF000ABA3BCA348EE61E0CE0147960E943E08FB
:104E0000C9A0DAA0EBA0FCA0BE01655D7F4FCE017A
:104E100047960E94C717AE014F5F5F4FBE01655DA9
:104E20007F4FCE0147960E94FF168BA5882309F479
:104E3000A6C08B859C85AD85BE858C57924FAF4FA4
:104E4000BF4F2DA5222309F49FC04B855C856D853E
:104E50007E854E545D4F6F4F7F4F440F551F661F29
:104E6000771F840F951FA61FB71F3EA4332061F044
:104E70004F85588969897A894C565D4F6F4F7F4FAE
:104E8000840F951FA61FB71F2FA5222309F496C0D4
:104E90004C015D01E6E28E0EE2E09E1EA11CB11CFB
:104EA000C814D904EA04FB0408F488C0AB81B0E05C
:104EB00020E03FE24AE350E00E949F4D2B013C017D
:104EC000F4EF4F0EF1E05F1E611C711CA70196010B
:104ED000281939094A095B09A8EEB3E00E949F4DE1
:104EE0004B015C01C301B20120ED37E040E050E02E
:104EF0000E94B24D820E931EA41EB51EC301B201C4
:104F000028EE33E040E050E00E94B24DC501B4010C
:104F10000E94B24D332031F08F819885280F391FC0
:104F2000411D511D211531054105510509F469C087
:104F3000BA01A901415051096109710990E080E06D
:104F40002A013B01442445284628472851F17695FB
:104F50006795579547950196F3CF86E39BE0A0E0D0
:104F6000B0E012CF2CA5222309F422CF4B855C851B
:104F70006D857E854C565D4F6F4F7F4F15CF86E315
:104F80009BE0A0E0B0E05DCF2CA5222309F46DCF1B
:104F90004B855C856D857E854C565D4F6F4F7F4F91
:104FA00060CF982F8827482B592B61E7CE01479671
:104FB0000E940908C9A2DAA2EBA2FCA241E061E0CA
:104FC000CE0147960E943E0860E4CE0147960E94BB
:104FD000CE16882309F4B6CB42E061E0CE014796B5
:104FE0000E943E0860E0CE0147960E94CE168823BC
:104FF00009F4A8CB48EE61E0CE0147960E943E0836
:10500000A1CB50E040E0D1CF89E190E00E94ED508B
:105010008C016EE070E00E942F1482E692E0D801CD
:1050200011969C938E931A961C921E9219970E9429
:105030008304F80176876587128A118A88E090E0F8
:10504000948B838B8FEF9FEF968B858B108E178AB7
:105050008091FA02815080870E948E0586E30E942B
:10506000420267E082EB98E00E94D20790E080E085
:105070000E94010861E082EB98E00E94D20782EB77
:1050800098E00E94060806C8CE01C1960E94110F42
:105090008AE090E00E94ED508C01F9A86FE070E08A
:1050A0000E942F1488E692E0D80111969C938E936B
:1050B0008091F705803308F07AC091E0980F9093C3
:1050C000F70516968C9390E0FC01EE0FFF1FE80F9A
:1050D000F91FE959FA4F88EB9BE092838183D8014D
:1050E0001996FC9219978091FA02815015968C932B
:1050F000159716968C91803310F00C944A2061E03D
:105100008F2D0E94D203F8018681282F30E0F9010B
:10511000EE0FFF1FE20FF31FE959FA4F2F2D2F73E8
:105120009081907C922B9083D80117961C921797B0
:1051300018961C922CE0622F0E94D950829FB001D9
:10514000112430E020E0AB01420F531FFA01EE0FB3
:10515000FF1FE40FF51FE959FA4F908196FD16C025
:105160002F5F3F4F2C30310571F7813021F51092C0
:10517000800082E08093810010928500109284006C
:10518000B19A80916F00826080936F00D80116966B
:10519000EC918E2F90E0FC01EE0FFF1FE80FF91F3E
:1051A000E959FA4F8081806480830C944A208FEF04
:1051B000F801868394CF823061F41092900080933E
:1051C0009100109295001092940088BB809371001A
:1051D000DDCF833069F41092A00082E08093A100BB
:1051E0001092A5001092A40089BB80937200CECFCC
:1051F0008111CCCF1092200182E080932101109286
:105200002501109224018ABB80937300BFCF0F93B6
:105210001F9390E0FC01EC52FC4F6491FC01E257BB
:10522000FC4FE491F0E0EE0FFF1FEC58FC4F85912E
:10523000949100E412E42FE030E040E00E94AD4A97
:10524000611571058105910529F06F5F7F4F8F4FC3
:105250009F4F9F701F910F910895DF92EF92FF92E1
:105260000F931F93CF93DF9300D000D0CDB7DEB75D
:105270001A8219821C821B821E821D82683C09F4DC
:105280005CC06A3C09F46AC06F3209F054C0809176
:10529000FE020E94F30E8C0160E0FC0186810E94F8
:1052A000A40360E0F80187810E94A403F8018085CF
:1052B0000E940729F8017387628761E086810E9456
:1052C000A40361E0F80187810E94A403F8018085AE
:1052D0000E940729F8017787668760E086810E942F
:1052E000A40361E0F80187810E94A403F80180858E
:1052F0000E940729F80175876487228533853A83E0
:105300002983268537853C832B837E836D838E019D
:105310000F5F1F4F7E01F7E0EF0EF11CF801D08008
:1053200081810E5F1F4F0E942A128D2D0E942A122A
:105330000E151F0599F78AEC02C08091FD02269692
:105340000FB6F894DEBF0FBECDBFDF91CF911F9196
:105350000F91FF90EF90DF900C94400F60EB7CE199
:1053600026960FB6F894DEBF0FBECDBFDF91CF916A
:105370001F910F91FF90EF90DF900C940B0FCF9245
:10538000DF92EF92FF920F931F93CF93DF93CDB7EE
:10539000DEB7C254D1090FB6F894DEBF0FBECDBF41
:1053A0008C01FB0182819381A481B58123968CAF0E
:1053B0009DAFAEAFBFAF239721E023962FAF2397CA
:1053C00023964CAD5DAD6EAD7FAD23974BAB5CAB23
:1053D0006DAB7EAB89AF9AAFABAFBCAF8DA79EA7CD
:1053E000AFA7B8AB28AB4DA55EA56FA578A94FA315
:1053F00058A769A77AA72EAB4BA95CA96DA97EA96E
:1054000049A35AA36BA37CA38B8F9C8FAD8FBE8FB8
:105410002AA74FA158A569A57AA54D8B5E8B6F8BE6
:10542000788F2CA349A15AA16BA17CA14F87588BDF
:10543000698B7A8B89879A87AB87BC870E948304A4
:1054400066507F4F8F4F9F4F6093310870933208A3
:10545000809333089093340880911206811149C0DB
:1054600061E085E30E94D20361E085E30E94A4032A
:10547000FFB6F89480911106811127C0E3ECF3E0A8
:105480008491E9E0F4E09491E82FF0E0EE0FFF1F43
:10549000E65AFC4FA591B491EC91E92321F461E027
:1054A00085E30E94A40361E085E30E94D2038CB5EA
:1054B00080618CBD8CB580648CBD61E084E30E940A
:1054C000D20361E083E30E94D203809111068F5FD3
:1054D00080931106FFBE8CB58C7F8CBD8DB581602D
:1054E0008DBD82E70E94CB098F3F09F443C08093B2
:1054F000120610921F0710921E0710922107109299
:105500002007E3E1F6E089E091E0DF019C011D92D4
:1055100021503040E1F781E098E0909314068093A9
:1055200013064FEF60E08FEF0E94E30862E070E047
:1055300080E090E00E94500462E370E080E090E040
:105540000E94500410921D0710921C0780E1E82E63
:10555000F12C6DE180E00E94AD0981110EC031E0B7
:10556000E31AF10851F06AE070E080E090E00E94F8
:105570005004EFCF10921206BCCF70E060E088E0DC
:105580000E941B0970E060E08CE00E941B096FEF35
:1055900077E08AE00E941B0961EB88E30E94A00982
:1055A0006FE370E388E20E941B0969EF77EF80E305
:1055B0000E941B096DE070E080EC0E941B0942E331
:1055C00062EC80E80E94E30862E17CE086EC0E94E5
:1055D0001B0962E184EC0E94A0096CED75E08AEC85
:1055E0000E941B09D8016C9184EE0E94A009F80169
:1055F000618185EE0E94A009D80112966C9182EE1D
:105600000E94A009F801638183EE0E94A009D801DD
:1056100014966C9180EE0E94A009F801658181EEDC
:105620000E94A00960E071E080E10E94D4098FE14E
:105630000E94FC0840EC6BE180E80E94E30844E033
:105640006FE180E80E94E30866E774E084E10E946D
:10565000D409D8018C9180932B0811968C911197C5
:1056600080932C0812968C91129780932D08139694
:105670008C91139780932E0814968C911497809395
:105680002F0815968C91809330081092CA071092BB
:10569000C9071092CC071092CB071092CE07109238
:1056A000CD071092D0071092CF0710926A07109280
:1056B00088071092A6071092C40780E094E09093A8
:1056C000500780934F0710922807109227071092D7
:1056D00033071092320710923E0710923D07109246
:1056E00049071092480784E08093D10710922A0856
:1056F0009BE024E080912A08883008F44CC04D8952
:105700005E898F8921E02A8BCF84D888E988FA883E
:10571000CB82DC82ED82FE826B857C85E985FA8511
:10572000F0930E06E0930D067093100660930F063B
:1057300050930A064093090690E0916090930C06FE
:1057400080930B068FEF9FEF9093060680930506DC
:105750008FEF90E090930806809307062E838B814D
:105760009C81AD81BE8180931F0990932009A093F5
:105770002109B0932209CE5BDF4F0FB6F894DEBF4C
:105780000FBECDBFDF91CF911F910F91FF90EF9092
:10579000DF90CF900895899FF0011124EE52F84FC9
:1057A000DF01322F1D923A95E9F78F5F80932A0827
:1057B000A1CF0F931F93CF93DF93DC0120914F076D
:1057C000309150072F5F3F4F21158DE7380710F0BC
:1057D00020E030E1522F432FE3E2F7E0EF0180E0D9
:1057E0008430A1F43093500720934F0730E020E03D
:1057F0002430310599F484E08093D107F0E0E0E0B3
:10580000CF01DF91CF911F910F9108950C811D81E0
:105810008F5F2B960417150719F7D4CFC481D58154
:10582000C90101963B96CD2B09F52093D1078BE05A
:10583000829FF001839FF00D1124ED5DF84F558399
:10584000448377836683109799F484E0DF011D9287
:105850008A95E9F78BE0829FD001839FB00D1124D8
:10586000AD5DB84F80E418968C93CACF9C01C0CF31
:105870008D919C9111979183808312968D919C912B
:1058800093838283E7CF0F931F93CF93DF93EC0132
:105890008B018C859D85892B41F470E060E090E060
:1058A00080E00E94D92B9D878C87EC85FD8580E068
:1058B000309749F0102701271027158304832E966F
:1058C000D287C18781E0DF91CF911F910F91089519
:1058D000CF93DF93DC011C96ED91FC913097B1F0F2
:1058E000EC0115821482128611861D861C86898918
:1058F0000E94A30888890E94A3088A890E94A3089D
:105900002E9686E0FE0111928A95E9F7DF91CF91FC
:105910000895FC011382128288EE93E0A0E0B0E0CB
:1059200084839583A683B78380E992E09183808303
:10593000158614863E9686E0DF011D928A95E9F76A
:1059400008950E9412528F929F92AF92BF92EF924F
:10595000FF920F931F93CF93DF93CDB7DEB7A1973D
:105960000FB6F894DEBF0FBECDBF7C01FA01CB01AC
:1059700019A2223008F42AE08E010F5D1F4F822EFB
:10598000912CB12CA12CBF01A50194010E94B24D14
:10599000F901CA016A3074F5605DD8016E938D011A
:1059A000232B242B252B79F790E080E0109789F0AA
:1059B000FD0101900020E9F73197AF014A1B5B0B15
:1059C000D701ED91FC910280F381E02DB801C70170
:1059D0001995A1960FB6F894DEBF0FBECDBFDF912B
:1059E000CF911F910F91FF90EF90BF90AF909F903C
:1059F0008F900895695CD1CF8F929F92AF92BF92A2
:105A0000CF92DF92EF92FF920F931F93CF93DF938A
:105A10007C01EB016C0182E0C80ED11C4701E5E07E
:105A20008E0E911C10E000E0F60141916F0150E0F4
:105A300070E060E02AE0CE010E94A32C5C01E881C6
:105A4000F9810190F081E02D6EE2CE0119958A0D69
:105A50009B1D080F191FC814D90431F7F7014581A0
:105A600050E070E060E02AE0CE010E94A32C800F9D
:105A7000911FDF91CF911F910F91FF90EF90DF90D9
:105A8000CF90BF90AF909F908F90089585ED8093B9
:105A9000BC0080918A0890918B08A0918C08B091ED
:105AA0008D080796A11DB11D23E0B695A795979582
:105AB00087952A95D1F72091BC0024FD03C0109250
:105AC0008808089540918A0850918B0860918C084D
:105AD00070918D08452B462B472B69F30097A10544
